:100000000C9441020C946B070C9498070C946902B1
:100010000C9469020C9469020C9469020C946902B4
:100020000C9469020C9469020C9469020C946902A4
:100030000C9469020C9469020C9469020C94690294
:100040000C94C5070C9469020C94EF090C94320AC5
:100050000C9469020C9469020C9469020C94690274
:100060000C9469020C9469027364746573740025BE
:10007000732E6C6F67004C6F6766696C65206E61EC
:100080006D653A090053656E736F72204D6F64653C
:100090006C3A204C4E44203733313700436F6E7634
:1000A000657273696F6E20666163746F723A203394
:1000B00034342063706D203D2031207553762F48F5
:1000C00072006E4765696769650046726565205212
:1000D000414D3A09004661696C65642044484350CB
:1000E000006C6F63616C5F49503A090049443A09FA
:1000F00009007365747570204F4B2E00736574751D
:1001000070204F4B0075532F4800446973636F6E26
:100110006E656374696E6700436F6E6E65637469C4
:100120006E6700436F6E6E6563746564007B226C5E
:100130006F6E676974756465223A222573222C22DA
:100140006C61746974756465223A222573222C22CD
:100150006465766963655F6964223A222573222C9F
:100160002276616C7565223A222573222C22756EE7
:100170006974223A2263706D227D002048545450E5
:100180002F312E31004163636570743A20617070C5
:100190006C69636174696F6E2F6A736F6E00486F6C
:1001A00073743A203130372E3136312E3136342EB9
:1001B00031363600436F6E74656E742D4C656E6714
:1001C00074683A2000436F6E74656E742D547970B4
:1001D000653A206170706C69636174696F6E2F6A33
:1001E000736F6E00446973636F6E6E656374696EDE
:1001F000670024424E5244442C25732C2C2C2C2571
:10020000732C2C2C2C25732C2C25732C2C2C2C2C67
:100210002C002A302558002A255800534463617267
:10022000642064617461207772697474656E005330
:10023000656E64204F4B004669726D776172655F31
:100240007665723A0925730A000000000700020172
:10025000000003040600000000000000000102048A
:100260000810204080010204081020010204081038
:10027000200404040404040404020202020202032F
:1002800003030303030000000023002600290000ED
:10029000000000250028002B00000000002400279B
:1002A000002A007C3C3E5E2B3D3F2F5B5D3B2C2AB1
:1002B000225C005344206572726F72436F64653A2A
:1002C000203058002C3058006572726F723A20004E
:1002D0006572726F723A2000496E76616C696420B3
:1002E000666F726D61742C207265666F726D6174D9
:1002F0002053442E0043616E2774206F70656E207A
:10030000726F6F74206469726563746F72792E0006
:100310004E6F206572726F7220666F756E642E006C
:1003200043616E27742061636365737320534420B7
:10033000636172642E20446F206E6F742072656654
:100340006F726D61742E004E6F20636172642C2099
:1003500077726F6E6720636869702073656C656380
:10036000742070696E2C206F722053504920707277
:100370006F626C656D3F0000407A10F35A00A07206
:100380004E18090010A5D4E80000E87648170000D0
:10039000E40B54020000CA9A3B000000E1F505009E
:1003A0000080969800000040420F000000A08601E7
:1003B000000000102700000000E8030000000064B7
:1003C00000000000000A0000000000010000000022
:1003D000002C76D888DC674F0823DFC1DFAE59E1F7
:1003E000B1B796E5E3E453C63AE651997696E8E666
:1003F000C28426EB898C9B62ED407C6FFCEFBC9C39
:100400009F40F2BAA56FA5F490055A2AF75C936B4A
:100410006CF9676DC11BFCE0E40D47FEF520E6B505
:1004200000D0ED902E0300943577050080841E08DF
:100430000000204E0A000000C80C333333330F98FD
:100440006E12831141EF8D2114893BE65516CFFEC4
:10045000E6DB18D1844B381BF77C1D901DA4BBE450
:1004600024203284725E228100C9F124ECA1E53D92
:100470002700F506EA0A900B5F10031278138C2C04
:10048000A42C11241FBECFEFD8E0DEBFCDBF12E0F9
:10049000A0E0B1E0ECE7F1E702C005900D92AC33CB
:1004A000B107D9F717E0ACE3B2E001C01D92A33069
:1004B000B107E1F714E0C2E8D4E004C02297FE01DE
:1004C0000E94F331C237D107C9F70E94580E0C942D
:1004D000BC380C9400000F931F93CF938C01C62F50
:1004E0006A3069F4DC0112968D919C911397DC01BE
:1004F000ED91FC910190F081E02D6DE00995F801FE
:1005000082819381DC01ED91FC910190F081E02DDD
:100510006C2F0995CF911F910F91089580E0089558
:1005200080E0089581E0089560E070E0CB010895D7
:1005300080919202909193020196909393028093FE
:10054000920281E0809394020895DC0112968D91CD
:100550009C9113976115710581F0DB010D900020CE
:10056000E9F7AD0141505040461B570BDC01ED91BE
:10057000FC910280F381E02D09950895A2E0B0E09E
:10058000E4ECF2E00C94CA312091F9063091FA06BD
:100590002115310511F423E037E0CE010196821BCD
:1005A000930B2296E2E00C94E631A4E3B0E0EBED8D
:1005B000F2E00C94C631CE01479660E071E041E074
:1005C0000E947C1C8D8D882331F48EE492E068E6D5
:1005D00070E00E94331C0DE312E0EE24FF241DC0E6
:1005E000FC01319781E090E08C0F9D1FE80FF91F0F
:1005F00080818A3009F4108294E0E916F10444F411
:10060000CE0101960E94A633D8018C9311969C933B
:100610000894E11CF11C0E5F1F4FCE014B96BE01EA
:100620006F5F7F4F46E150E020E030E00E94A2156E
:1006300018161906ACF280913D0290913E029093FB
:10064000B4018093B30180913F0290914002909356
:10065000AE018093AD01209141023091420230936E
:10066000B2012093B10120914302309144023093B2
:10067000B0012093AF0100D000D000D0EDB7FEB79D
:1006800031962091A5013091A601ADB7BEB7129663
:100690003C932E9311972FE630E03383228395838A
:1006A00084830E94EC33EDB7FEB736960FB6F8940C
:1006B000FEBF0FBEEDBF80E993E066E770E00E94E9
:1006C000D80B6091A5017091A60180E993E00E948A
:1006D000330CE496E6E00C94E231ACE0B0E0E3E702
:1006E000F3E00C94CA318DEC92E090930007809374
:1006F000FF0680E993E040E855E260E070E00E9488
:100700006D0A1092DC021092DB0229E288E190E08F
:100710000FB6F894A895809360000FBE20936000F8
:1007200080E993E00E940D0C80E993E065E870E0B9
:100730000E94210C80E993E06CE970E00E94210C9A
:100740008DEE9DE0AEE3BBE380938A0290938B0233
:10075000A0938C02B0938D0210929E0210929D0283
:100760008FE992E068E042E020E00E9454218AE0B4
:1007700061E00E94E6088AE061E00E941A098EE4C6
:1007800092E064E044E00E94991B882321F48EE407
:1007900092E00E945E1C0E94D50284E061E00E940B
:1007A000E60884E061E00E941A098FE992E00E9465
:1007B0004C218FE992E062EC70E00E94D80B68EE69
:1007C00073E080E090E00E944B088FE992E060E0E7
:1007D00041E00E9427218FE992E065EB71E00E94E1
:1007E000F70B80E993E06AEC70E00E94D80B0E945E
:1007F000BE02BC0180E993E04AE050E00E94230D74
:1008000080E494E067EA71E00E948B0E0097F9F4AF
:1008100080E993E065ED70E00E94210C86EE91E0A6
:1008200098878F838091BC029091BD02A091BE02F7
:10083000B091BF0289879A87AB87BC8780E494E038
:1008400067EA71E0AE01495F5F4F0E94CF0F80E918
:1008500093E061EE70E00E94D80BCE01019660E457
:1008600074E00E944D1080E993E0BE016F5F7F4FFE
:100870000E94450C80E068E972E043E050E00E948D
:100880004B0780EE93E9A4E0B0E080939902909347
:100890009A02A0939B02B0939C020E940F08DC0175
:1008A000CB014091990250919A0260919B02709104
:1008B0009C02840F951FA61FB71F809395029093EB
:1008C0009602A0939702B0939802A89580E993E0CE
:1008D0006CEE70E00E94D80B6091AD017091AE019A
:1008E00080E993E00E94330C80E993E062EF70E0CE
:1008F0000E94210C8FE992E060E041E00E942721F4
:100900008FE992E06CEF70E00E94D80B2C96E2E049
:100910000C94E631A4E3B0E0E0E9F4E00C94C031DB
:100920004B015C0120918A0230918B0240918C0234
:1009300050918D020E94F7307B01182F092F9801EA
:10094000862F9F2DA32FB22FBC01CD0120E030E0D8
:100950004AE754E40E94F73020E030E040E05FE3F3
:100960000E94402F0E941030DC01CB018093860250
:1009700090938702A0938802B09389028FE992E056
:100980000E944C218FE992E060E040E00E94272124
:100990008FE992E098014E2D5F2D632F722F22E098
:1009A00030E00E94550E8FE992E065E071E00E9410
:1009B000D80B80EC92E00E943011882351F080E93E
:1009C00093E06AE071E00E94210C80EC92E00E94CA
:1009D000541180E993E068E171E00E94210C86EEF9
:1009E00091E09A8389838091B6029091B702A09199
:1009F000B802B091B9028B839C83AD83BE8380EC37
:100A000092E0BE016F5F7F4F40E550E00E949A1177
:100A1000009709F408C180E993E063E271E00E9465
:100A2000210C0E940F08DC01CB0180938E02909371
:100A30008F02A0939002B09391021092DC0227E003
:100A4000C22ED12CCC0EDD1EC501B40140E020E049
:100A500086010E94F7310DED12E030E5F32ED8014A
:100A6000EF2D1D92EA95E9F78DB79EB70C970FB65B
:100A7000F8949EBF0FBE8DBFEDB7FEB73196ADB7F0
:100A8000BEB712961C930E9311978DE291E093835B
:100A900082838091AF019091B0019583848380918E
:100AA000B1019091B201978386838091AD019091BD
:100AB000AE0191878087D386C2860E94EC33F8010D
:100AC00001900020E9F731971082EDB7FEB73C9610
:100AD0000FB6F894FEBF0FBEEDBF80E993E0B801FA
:100AE0000E94330C80EC92E06CE071E00E94F70B06
:100AF0006091B3017091B40180EC92E00E94F70B19
:100B000080EC92E06BE771E00E94210C80EC92E0B7
:100B100065E871E00E94210C80EC92E06EE971E0E2
:100B20000E94210C80EC92E064EB71E00E94D80BF3
:100B3000D8010D900020E9F7BD0161507040601BA5
:100B4000710B80EC92E04AE050E00E94C80C80EC0F
:100B500092E065EC71E00E94210C80EC92E00E9432
:100B60000D0C80EC92E0B8010E94330C80E993E018
:100B700064EE71E00E94210C0DE213E0F801119285
:100B8000FA94E9F78DB79EB70C970FB6F8949EBF0D
:100B90000FBE8DBFEDB7FEB73196ADB7BEB712969B
:100BA0001C930E93119782EF91E09383828380913F
:100BB000AD019091AE0195838483D782C6828091E6
:100BC000B1019091B201918780878091AF0190919E
:100BD000B001938782870E94EC33F80101900020D6
:100BE000E9F73197E01BF10B9F01200F311FD9016D
:100BF0001C9240912E03D80112968DB79EB70C9689
:100C00000FB6F8949EBF0FBE8DBF81E090E003C089
:100C10005D91452701968E179F07D4F340933C02C0
:100C20004031C0F026C08091DC028F5F8093DC02EF
:100C3000833018F081E08093DB020E940F08DC0112
:100C4000CB0180938E0290938F02A0939002B09379
:100C5000910264C000D000D000D0EDB7FEB731964D
:100C6000ADB7BEB712963C932E93119782E192E0F6
:100C70000EC000D000D000D0EDB7FEB73196ADB7B2
:100C8000BEB712963C932E93119787E192E093831F
:100C90008283448315820E94EC33EDB7FEB736960B
:100CA0000FB6F894FEBF0FBEEDBF1B8E1D8E1A8EC1
:100CB000198E88E292E0988F8F8B6091A5017091D8
:100CC000A601CE014B9643E60E94011A882331F417
:100CD0008EE492E06DE271E00E941B1CCE0147960B
:100CE0006DE273E00E94330C80E993E06BE172E007
:100CF0000E94210CCE014B960E9468178FE992E06A
:100D000060E041E00E9427218FE992E06FE272E00B
:100D10000E94D80B80EC92E00E945411E496ECE023
:100D20000C94DC31CF92DF92EF92FF920F931F93DE
:100D30006B017C010E940F08DC01CB019701860149
:100D4000081B190B2A0B3B0BC816D906EA06FB0633
:100D500020F40095109520953095B801C9011F9198
:100D60000F91FF90EF90DF90CF9008958091DB027C
:100D7000813009F0A89580E494E00E94FE0F609114
:100D80008E0270918F0280919002909191020E9448
:100D90009206AB01BC018091990290919A02A091B8
:100DA0009B02B0919C02481759076A077B07E0F045
:100DB0006091920270919302882777FD8095982F19
:100DC0000E94433020E030E040EA50E40E94A82F27
:100DD0001092930210929202462F572F682F792F6C
:100DE000CB01BA010E948A040895CF92EF920F932B
:100DF0008DE793E060E040E020E000E00E94660BB9
:100E000080EC92E00E9410118AEB92E060EC48EADC
:100E100024E608E20E94660B84EB92E06BE641EA6E
:100E200024EA06EA0E94660B8FE992E06EE04FE04A
:100E300028E005E056E0E52E77E0C72E0E940A2262
:100E400089E180934F021092520210926502109233
:100E50006C0210926E0280E2809347028AE090E179
:100E6000909349028093480282E080934A02109254
:100E70004C0210924B0210924D02E3E4F2E086EC39
:100E800091E09183808380E993E0938382830F9143
:100E9000EF90CF9008958230E8F4E82FF0E0EE0F65
:100EA000FF1FED57FC4F71836083813041F08091CB
:100EB00069008C7F842B80936900E89A0895809163
:100EC0006900440F551F440F551F837F842B809367
:100ED0006900E99A08951F920F920FB60F9211249C
:100EE0002F933F934F935F936F937F938F939F9332
:100EF000AF93BF93EF93FF9380918303909184030B
:100F0000009729F0E0918303F09184030995FF9104
:100F1000EF91BF91AF919F918F917F916F915F9171
:100F20004F913F912F910F900FBE0F901F901895EA
:100F30001F920F920FB60F9211242F933F934F934E
:100F40005F936F937F938F939F93AF93BF93EF9331
:100F5000FF938091850390918603009729F0E0919B
:100F60008503F09186030995FF91EF91BF91AF91B1
:100F70009F918F917F916F915F914F913F912F91B1
:100F80000F900FBE0F901F9018951F920F920FB6E3
:100F90000F9211242F933F938F939F93AF93BF93FF
:100FA0008091870390918803A0918903B0918A036F
:100FB00030918F03232F2D5F2D3720F40196A11D33
:100FC000B11D05C0232F2A570296A11DB11D2093E4
:100FD0008F038093870390938803A0938903B09332
:100FE0008A0380918B0390918C03A0918D03B09123
:100FF0008E030196A11DB11D80938B0390938C03EA
:10100000A0938D03B0938E03BF91AF919F918F9169
:101010003F912F910F900FBE0F901F9018950F9337
:101020001F938FB7F8940091870310918803209144
:10103000890330918A038FBFB801C9011F910F91B5
:1010400008950F931F939FB7F89400918B0310910D
:101050008C0320918D0330918E0386B5A89B06C02A
:101060008F3F21F00F5F1F4F2F4F3F4F9FBF322FFA
:10107000212F102F0027080F111D211D311D42E0C7
:10108000000F111F221F331F4A95D1F7B801C90164
:101090001F910F910895CF92DF92EF92FF92CF931D
:1010A000DF936B017C010E942108DC01CB01EC0184
:1010B0000FC00E9421086C1B7D0B83E0683E7807FF
:1010C00038F00894C108D108E108F108C851DC4F94
:1010D000C114D104E104F10461F7DF91CF91FF90D5
:1010E000EF90DF90CF900895019739F0880F991F06
:1010F000880F991F02970197F1F70895789484B5A6
:10110000826084BD84B5816084BD85B5826085BD03
:1011100085B5816085BDEEE6F0E0808181608083E9
:10112000E1E8F0E0108280818260808380818160CC
:101130008083E0E8F0E0808181608083E1EBF0E093
:10114000808184608083E0EBF0E080818160808337
:10115000EAE7F0E080818460808380818260808320
:101160008081816080838081806880831092C1004B
:101170000895833071F0843028F48130A1F08230FA
:1011800021F514C08630B1F08730D1F08430E9F415
:1011900004C0809180008F7703C0809180008F7D94
:1011A00080938000089584B58F7702C084B58F7DC9
:1011B00084BD08958091B0008F778093B00008952A
:1011C0008091B0008F7D8093B000089590E0FC0185
:1011D000E35AFD4F24918F589D4FFC018491882341
:1011E00041F190E0880F991FFC01E756FD4F4591B2
:1011F0005491DA0181579D4FFC0185919491FC0136
:101200009FB7F8948C91662331F4209582238C93B8
:101210008081822308C0623049F4322F30958323C5
:101220008C938081822B80839FBF0895822B8C9327
:101230009FBF0895A1E0B0E0E0E2F9E00C94C8316E
:10124000282F30E0F901E75BFD4F8491F901E35A63
:10125000FD4F1491F901EF58FD4F04910023D1F097
:10126000882321F069830E94B9086981E02FF0E0AA
:10127000EE0FFF1FE157FD4F85919491DC019FB761
:10128000F8948C91662319F41095812301C0812B69
:101290008C939FBF2196E4E00C94E431FC012485FB
:1012A0003585F901E05CFF4F808191812E5B3F4FD6
:1012B000F90120813181821B930B8F739070089507
:1012C000FC0144855585FA01E05CFF4F80819181E6
:1012D000FA01EE5BFF4F208131818217930741F0C5
:1012E0000190F081E02DE40FF51F808190E00895DA
:1012F0008FEF9FEF0895FC0144855585FA01E05C6E
:10130000FF4F20813181FA01EE5BFF4F8081918197
:101310002817390779F0A081B181A40FB51F8C91EE
:10132000208131812F5F3F4F2F73307031832083B5
:1013300090E008958FEF9FEF0895FC0181A188232D
:1013400029F0A489B5898C9186FFFBCF11A208955D
:10135000CF93DF93DC011E964D915C911F97EA01BC
:10136000C05CDF4F288139812F5F3F4F2F73307072
:10137000FA01EE5BFF4F8081918128173907D9F37D
:10138000E881F981E40FF51F60831E96ED91FC91D1
:101390001F97E05CFF4F318320835696ED91FC91BF
:1013A0005797208181E090E05F960C905F9702C094
:1013B000880F991F0A94E2F7282B208381E09196E9
:1013C0008C9391975496ED91FC9155978081806410
:1013D000808381E090E0DF91CF91089508951F927E
:1013E0000F920FB60F9211242F933F934F938F9329
:1013F0009F93EF93FF938091C00082FD1CC04091AA
:10140000C600809136049091370401968F739070D6
:1014100020913804309139048217930771F0E091DC
:101420003604F0913704EA50FC4F40839093370420
:101430008093360402C08091C600FF91EF919F9186
:101440008F914F913F912F910F900FBE0F901F9052
:10145000189580E993E00E944E09009711F00E94D0
:10146000EE0908951F920F920FB60F9211242F9339
:101470003F938F939F93EF93FF932091F2033091CB
:10148000F3038091F4039091F5032817390731F4A1
:101490008091C1008F7D8093C10014C0E091F4035E
:1014A000F091F503EE54FC4F20818091F40390916C
:1014B000F50301968F7390709093F5038093F40376
:1014C0002093C600FF91EF919F918F913F912F91B3
:1014D0000F900FBE0F901F901895A0E0B0E0E3E7CB
:1014E000FAE00C94C331EC016A017B01BB24B39494
:1014F000403081EE580780E0680780E0780749F4C3
:10150000BB24EC89FD89108260E874E88EE190E0EC
:101510000FC0EC89FD8981E090E008A002C0880F2F
:10152000991F0A94E2F7808360E079E08DE390E010
:10153000A70196010E947D3189019A010150104056
:1015400020403040369527951795079580E100306B
:10155000180710F0BB20A1F6E889F9891083EA8901
:10156000FB89008319A2EE89FF89408121E030E0E8
:10157000C9010C8C02C0880F991F0A94E2F7482B0E
:101580004083EE89FF894081C9010D8C02C0880F1C
:10159000991F0A94E2F7482B4083EE89FF89408126
:1015A000C9010E8C02C0880F991F0A94E2F7482BDC
:1015B0004083EE89FF8980810F8C02C0220F331F88
:1015C0000A94E2F7209528232083CDB7DEB7E9E01F
:1015D0000C94DF31109293031092920388EE93E003
:1015E000A0E0B0E08093940390939503A0939603BA
:1015F000B0939703E2E9F3E086ED91E09293829352
:1016000086EF93E09587848782EB93E097878687C0
:1016100085EC90E0918B808B84EC90E0938B828BB7
:1016200080EC90E0958B848B81EC90E0978B868B9F
:1016300082EC90E0918F808F86EC90E0938F828F88
:1016400084E0848F83E0858F87E0868F85E0878FB5
:1016500081E080A30895A0E0B0E0E1E3FBE00C941A
:10166000C2315C017B0100E010E0CC24DD24F501F7
:10167000E00FF11FC70162814AE050E00E94DE0CDA
:10168000EC01C7016EE20E94FA0BC80FD91FCC0E05
:10169000DD1E0F5F1F4F0330110549F7C701F5012C
:1016A00065814AE050E00E94DE0C8C0D9D1DCDB797
:1016B000DEB7EAE00C94DE31FC0186EE91E0918326
:1016C0008083128213821482158208950F93FC0185
:1016D00086EE91E091838083628343832483058334
:1016E0000F910895CF93DF93FC0186EE91E09183F3
:1016F0008083EB0188819981AA81BB818283938356
:10170000A483B583DF91CF910895FB01408151817E
:1017100062817381FC0142835383648375830895DE
:1017200086EE91E090933B0480933A0410923C043F
:1017300010923D0410923E0410923F040895A0E0E0
:10174000B0E0E5EAFBE00C94C4316C017B01EA01F6
:1017500000E010E00EC0D7016D917D01D601ED9142
:10176000FC910190F081E02DC6010995080F191F29
:101770002197209781F7C801CDB7DEB7E8E00C9438
:10178000E0316115710589F0DB010D900020E9F76A
:10179000AD0141505040461B570BDC01ED91FC91CF
:1017A0000280F381E02D0995089580E090E008958E
:1017B000EF92FF920F931F93CF93DF937C01EB0186
:1017C00000E010E0FE0121966491662351F0F701DC
:1017D000A081B181ED91FC91C7010995080F191FF6
:1017E000F1CFC801CDB7DEB7E6E00C94E2310E943C
:1017F000C10B0895DC01ED91FC910190F081E02D89
:10180000099508959C01CB01DB01ED91FC910190BC
:10181000F081E02DB901099508950F931F93CF939F
:10182000DF938C016DE00E94FA0BEC01C8016AE0C5
:101830000E94FA0B8C0F9D1FDF91CF911F910F918A
:1018400008950F931F93CF93DF938C010E94D80BC1
:10185000EC01C8010E940D0C8C0F9D1FDF91CF91F0
:101860001F910F9108950F931F93CF93DF938C01D6
:101870000E94C10BEC01C8010E940D0C8C0F9D1F32
:10188000DF91CF911F910F9108950F931F93CF93E5
:10189000DF938C010E94020CEC01C8010E940D0C28
:1018A0008C0F9D1FDF91CF911F910F9108954F9243
:1018B0005F926F927F92AF92BF92CF92DF92EF9240
:1018C000FF920F931F93CF93DF93CDB7DEB7A1970E
:1018D0000FB6F894DEBF0FBECDBF5C01E42ECB0186
:1018E000F22E19A221E02F1510F03AE0F32E21E29A
:1018F000C22ED12CCC0EDD1E4F2C5524662477240D
:1019000003C0E02E512FC9016E2D752FA301920146
:101910000E947D3189019A01F09E802D1124E81AE0
:101920008E2D0894C108D1088A3010F4805D01C062
:10193000895CF6018083011511052105310509F740
:10194000C501B6010E94C10BA1960FB6F894DEBF87
:101950000FBECDBFDF91CF911F910F91FF90EF9000
:10196000DF90CF90BF90AF907F906F905F904F903F
:1019700008952115310549F4DC01ED91FC910190A8
:10198000F081E02D642F099508950E94570C089569
:101990000F931F93CF93DF938C019A01AB0160E00B
:1019A00070E00E94B90CEC01C8010E940D0C8C0F74
:1019B0009D1FDF91CF911F910F9108959A01462F9E
:1019C00050E060E070E00E94B90C0895A0E0B0E043
:1019D000ECEEFCE00C94C431EC016A017B012115B2
:1019E000310541F4E881F9810190F081E02D642F07
:1019F00009951AC02A303105A9F477FF12C06DE2AB
:101A00000E94FA0B8C0144275527BA014C195D0935
:101A10006E097F09CE012AE00E94570C800F911FAA
:101A200003C02AE00E94570CCDB7DEB7E8E00C9463
:101A3000E0319A01FB01AF01662757FD6095762FD3
:101A40000E94E60C08950F931F93CF93DF938C01B0
:101A50009A01CB01AC01662757FD6095762FC8012E
:101A60000E94E60CEC01C8010E940D0C8C0F9D1F1A
:101A7000DF91CF911F910F9108952F923F924F9236
:101A80005F927F928F929F92AF92BF92CF92DF929E
:101A9000EF92FF920F931F93CF93DF932C014A0194
:101AA0005B01722ECB01BA01A50194010E945A314B
:101AB000882321F0C2016DE771E01BC0750164014C
:101AC000E894F7F8C701B6012FEF3FEF4FE75FE764
:101AD0000E945A31882389F4C701B6012FEF3FEFE6
:101AE0004FE75FE70E94A42F18163CF4C20161E89B
:101AF00071E00E94C10B4C01C5C0C501B4012FEFBC
:101B00003FEF4FE75FE40E94F330181654F0C50131
:101B1000B4012FEF3FEF4FE75FEC0E94A42F87FF48
:101B200004C0C20165E871E0E4CFC501B40120E062
:101B300030E0A9010E94A42F87FF0AC0C2016DE214
:101B40000E94FA0B1C01B7FAB094B7F8B09402C027
:101B500022243324C0E050E040E030E02FE313C003
:101B6000FA01B9018F2F942FA72FB22FBC01CD01FD
:101B700020E030E040E251E40E94A82F562F472F8A
:101B8000382F292FCF5FC71559F7C501B401DA01E6
:101B9000F9010B2F142F2F2F3E2FA90198010E941E
:101BA000402F7B01182FD92F862F9F2DA12FBD2FBE
:101BB000BC01CD010E941530C62E072F882EC92FDB
:101BC0000E9441309B01AC018E2D9F2DA12FBD2F76
:101BD000BC01CD010E943F2F7B01182FD92FC201DC
:101BE0004C2D502F682D7C2F2AE030E00E94B90C3C
:101BF0004C01820C931C772009F442C0C20169E8B1
:101C000071E00E94C10B880E991E3AC08E2D9F2D47
:101C1000A12FBD2FBC01CD0120E030E040E251E416
:101C20000E94F730EB01182F092F9801862F9D2F66
:101C3000A32FB22FBC01CD010E9410306B017C019B
:101C4000EE24D7FCE094FE2CC201B701A6012AE0E5
:101C500030E00E94E60C880E991EC701B6010E9472
:101C600043309B01AC01B8018C2F9D2FA72FB62FBD
:101C7000BC01CD010E943F2F7B01182FD92F7A94F0
:101C8000772021F6C401DF91CF911F910F91FF9032
:101C9000EF90DF90CF90BF90AF909F908F907F900C
:101CA0005F904F903F902F9008950E943D0D0895B2
:101CB0000E947E080E946D03C9E2DAE00E94B60627
:101CC0002097E1F30E94290AF9CF21E030E0FC01DE
:101CD0008081882311F020E030E0C901089521E0DF
:101CE000FC0120830895BC0181E090E044E050E0D5
:101CF0000E9494240895BC0185E090E044E050E007
:101D00000E9494240895BC018FE090E044E050E0EC
:101D10000E9494240895AEE1B0E0E1E9FEE00C9465
:101D2000C4316C017B0180915004882371F480E5FB
:101D300094E00E94650E009741F08FE994E00E94C4
:101D4000621380E594E00E946F0E88E594E0F6014E
:101D5000978386838EED96E00E94562489E090E07A
:101D6000B70146E050E00E949424CE01499660E01D
:101D700040E020E000E00E94660BCE014B960E94FE
:101D8000830EF60186819781B70120E63AEE40E0A6
:101D900050E0A0EAEA2EAFE0FA2E012D112D0E94AC
:101DA0004C2C7C018130910589F5F60166817781A3
:101DB000CE0143960E94B828CE0145960E94830E1C
:101DC000F60166817781CE010D960E94CE28CE0164
:101DD0000F960E94730EF60166817781CE010796F9
:101DE0000E94C328CE0109960E947B0EF6016681EF
:101DF0007781CE0101960E94D9288B819C81AD818B
:101E0000BE81F60182839383A483B583C7016E9656
:101E1000E8E00C94E031A0E0B0E0E1E1FFE00C94F8
:101E2000BE313C014B015A0169018EED96E00E94E2
:101E3000562489E090E0B40146E050E00E949424EA
:101E4000C50102960E94830EC80102960E94730E7D
:101E5000C70102960E947B0EF60182819381A481C4
:101E6000B581F30182839383A483B583CDB7DEB7B5
:101E7000EEE00C94DA31AEE1B0E0E1E4FFE00C9486
:101E8000BE313C014B017A0169015801CE014996EE
:101E90006FEF4FEF2FEF00E00E94660B26EE31E070
:101EA0003C8B2B8BF70182819381A481B5818D8B33
:101EB0009E8BAF8BB88F3E872D87F60182819381F1
:101EC000A481B5818F87988BA98BBA8B38872F8394
:101ED000F50182819381A481B58189879A87AB8737
:101EE000BC873A8329838B8D9C8DAD8DBE8D8B8372
:101EF0009C83AD83BE83C301B401AE014D5E5F4FD1
:101F00009E01235F3F4F8E01095F1F4F7E010894A2
:101F1000E11CF11C0E940B0F6E96EEE00C94DA317E
:101F2000A8E1B0E0E6E9FFE00C94C6317B01DA01FC
:101F300012964D915D916D917C9115974D8B5E8BB5
:101F40006F8B788FE6EEF1E0FE87ED874F87588B39
:101F5000698B7A8BF887EF83D90112960D911D91C9
:101F60002D913C91159709871A872B873C87FA8317
:101F7000E9834B835C836D837E8321E02E83B701ED
:101F8000AE01435F5F4F9E01295F3F4F8E010F5FA0
:101F90001F4F0E943B0F6896E6E00C94E231A2E1ED
:101FA000B0E0E5EDFFE00C94CA31FB01DA011296D6
:101FB0004D915D916D917C9115974F87588B698BF1
:101FC0007A8B26EE31E038872F8349875A876B87D3
:101FD0007C873A8329834B835C836D837E8321E0F6
:101FE0002E83BF01AE01495F5F4F9E012F5F3F4FC0
:101FF0000E94900F6296E2E00C94E631A8E1B0E016
:10200000E4E0F0E10C94C6318C01FC0186819781FB
:102010000097E1F10E948C2B7C018230910521F028
:1020200084E0E816F104A1F5F80166817781CE011C
:1020300043960E94B828CE0145960E94830EF8016F
:1020400066817781CE010D960E94CE28CE010F9633
:102050000E94730EF80166817781CE0107960E9477
:10206000C328CE0109960E947B0EF8016681778114
:10207000CE0101960E94D9288B819C81AD81BE81C1
:10208000F80182839383A483B58302C0EE24FF24E6
:10209000C7016896E6E00C94E231CF93DF93EC0140
:1020A0000E945C0BBE016E5F7F4F8FE090E044E0CA
:1020B00050E00E94B625CE01DF91CF9108950F9395
:1020C0008AEB94E060E040E020E000E00E94660BD4
:1020D00080E494E00E945C0B0F910895A1E0B0E0D1
:1020E000E4E7F0E10C94CA316983DC01ED91FC91E5
:1020F0000280F381E02DBE016F5F7F4F41E050E031
:1021000009952196E2E00C94E631CF93DF93EC0140
:1021100007C0E881F9810680F781E02DCE0109959D
:10212000E881F9810480F581E02DCE0109950097C1
:1021300081F7DF91CF91089521E0FC0184858430FF
:1021400009F420E0822F0895A1E0B0E0EAEAF0E18E
:102150000C94C8318C01DC01ED91FC910480F58177
:10216000E02D0995009751F0F8018485BE016F5F5D
:102170007F4F0E94A223898190E002C08FEF9FEFE2
:102180002196E4E00C94E431FC0184850E946623EE
:102190000895A1E0B0E0EFECF0E10C94CA31FC014D
:1021A0008485BE016F5F7F4F41E050E00E9466234F
:1021B000181619061CF4898190E002C08FEF9FEF7A
:1021C0002196E2E00C94E631FC016485643031F044
:1021D0008EED96E00E946B259C0102C020E030E06D
:1021E000C90108950F931F93CF93DF938C01EA01E8
:1021F000FC018485843019F481E090E007C00E94DE
:102200001323009739F481E090E0F80193838283EF
:10221000C0E0D0E0CE01DF91CF911F910F910895E2
:10222000FC011382128248EE53E060E070E04483C8
:102230005583668377838CEE91E09183808384E07D
:1022400084870895FC018485843041F0382F20E094
:10225000C9018D5F9B4F0E94BE24089580E00895C0
:10226000CF93DF93EC018C858430D1F0CE010E94B6
:102270002211843181F0882371F0883161F08C3132
:1022800061F4E881F9810480F581E02DCE010995A2
:1022900021E0009719F420E001C021E0822F01C065
:1022A00080E0DF91CF910895CF92DF92EF92FF927D
:1022B000CF93DF93EC018C858430A9F10E940C232D
:1022C0000E940F086B017C01CE010E94221188231D
:1022D00081F00E940F08DC01CB018C199D09AE0929
:1022E000BF09883E23E0920720E0A20720E0B20762
:1022F00098F0CE010E942211882319F08C850E944B
:102300008922EC85F0E0EE0FFF1FE85BFB4F1182A6
:10231000108284E08C8707C061E070E080E090E08C
:102320000E944B08D1CFDF91CF91FF90EF90DF90CB
:10233000CF900895A1E0B0E0E0EAF1E10C94C23161
:102340005C017B016A01FC018485843009F055C081
:1023500003E014E020E0C80129830E94BE24298103
:10236000882321F0883111F08C3119F4F50124878C
:1023700005C02F5F00501F4F243069F7F501848599
:102380008430D9F12091BC013091BD012F5F3F4FC6
:102390003093BD012093BC012115310531F420E0BB
:1023A00034E03093BD012093BC014091BC015091B9
:1023B000BD0161E020E00E949722B7016E5F7F4F70
:1023C000F5018485A6010E94D72209C061E070E072
:1023D00080E090E00E944B08C5010E9422118823F2
:1023E00021F484E0F501848708C0C5010E94221110
:1023F000873161F781E090E002C080E090E02196B3
:10240000EAE00C94DE310F9380EC94E060E040E071
:1024100020E000E00E94660B0F910895DC01ED9131
:10242000FC910688F789E02D0995089526EE31E0A4
:10243000FC0131832083FB014189528963897489BE
:10244000FC0142835383648375830895FC0185896D
:1024500096890895FC01818D928D0895A1E0B0E0E8
:10246000E4E3F2E10C94CA316983DC01ED91FC9163
:102470000280F381E02DBE016F5F7F4F41E050E0AD
:1024800009952196E2E00C94E631CF93DF93EC01BD
:1024900007C0E881F9810680F781E02DCE0109951A
:1024A000898D9A8D0097A9F7DF91CF910895A1E0CA
:1024B000B0E0EDE5F2E10C94CA31FC01818D928D22
:1024C000009749F08485BE016F5F7F4F0E94A22371
:1024D000898190E002C08FEF9FEF2196E2E00C949B
:1024E000E631CF93DF93EC019A01498D5A8D411566
:1024F000510589F08C852417350708F4A9010E943D
:102500006623181619063CF4298D3A8D281B390BC1
:102510003A8F298F02C08FEF9FEFDF91CF910895FF
:10252000A1E0B0E0E6E9F2E10C94C8318C01FC01D5
:10253000818D928D0097A1F08485BE016F5F7F4FE2
:1025400041E050E00E946623181619064CF4F80189
:10255000818D928D0197928F818F898190E002C049
:102560008FEF9FEF2196E4E00C94E431CF93DF935B
:10257000EC019B01FA016F89788D8C85A9019F017F
:102580000E94B1232F89388D280F391F388F2F8B48
:10259000DF91CF910895FC0184850E940A2408955B
:1025A000FC01108E178A6E5F7F4F84850E94E523A1
:1025B0000895A8E0B0E0EFEDF2E10C94C8318C0191
:1025C000DC01ED91FC910284F385E02D09958EEDFF
:1025D00096E0F80164850E946B25009721F1D801EF
:1025E0001C968C91BE016F5F7F4F48E050E00E94C7
:1025F000662318161906CCF4C8010F96BE016F5F4A
:102600007F4F0E94850B9D8180E02E81820F911D5E
:10261000F801968B858B9F8180E02885820F911D24
:10262000928F818F02C080E090E02896E4E00C94C5
:10263000E431CF93DF93EC018C85843061F00E940C
:102640008922EC85F0E0EE0FFF1FE85BFB4F118263
:10265000108284E08C87DF91CF910895A1E0B0E0F3
:10266000E4E3F3E10C94C4316C017B01FC0184854B
:10267000843019F503E014E020E0C80129830E94AA
:10268000BE242981882311F0883119F4F6012487AA
:1026900005C02F5F00501F4F243079F7F601848565
:1026A000843059F0F686E586128E118E62E0A7011D
:1026B00020E00E94972281E001C080E02196E8E0BE
:1026C0000C94E031FC011382128248EE53E060E08A
:1026D00070E0448355836683778386E092E091833C
:1026E000808384E08487CF010F960E945C0B08955D
:1026F0000F9386EC94E060E040E020E000E00E9470
:10270000660B0F910895CF93DF93EC019C012A5F34
:102710003F4F8C819D8141E050E060E070E00E947D
:10272000311E8823A1F08E899F89A88DB98D0097CD
:10273000A105B10571F48E819F81A885B9858E8B25
:102740009F8BA88FB98F89818068898302C080E0C0
:1027500001C081E0DF91CF9108958F929F92AF9257
:10276000BF92EF92FF920F931F93CF938C01FC01C6
:1027700082899389A489B589803EFFEF9F07FFE195
:10278000AF07F0E0BF0708F057C0C8010E948313ED
:10279000882309F451C0D80116964D915D916D9131
:1027A0007C91199714968D919C9115970E94291DE3
:1027B0004B015C0145E00E94D21C7C010097F1F1C5
:1027C00080E092E0F7019C01119221503040E1F746
:1027D000C1E010C0B501A4014C0F511D611D711D58
:1027E0008091D0049091D10497010E949A2E882361
:1027F00019F1CF5FD8011496ED91FC9115974481A2
:10280000C41740F350E060E070E089E0440F551FCA
:10281000661F771F8A95D1F752968D919D910D90E5
:10282000BC91A02D840F951FA61FB71FF801828BA6
:10283000938BA48BB58B02C0EE24FF24C701CF91EC
:102840001F910F91FF90EF90BF90AF909F908F904E
:102850000895CF93DF93EC01462F8E859F85A8893D
:10286000B989BC01CD010E94D21C009751F02B8187
:1028700030E045E0220F331F4A95E1F7280F391F5A
:1028800002C020E030E0C901DF91CF910895CF93DD
:10289000DF93EA01FB012BE030E231932150E9F7AD
:1028A000DC0130E047E01CC04A3069F138E04AE022
:1028B00017C0E21741F1FC010196E491EE23C9F73C
:1028C000431708F12132F8F02F37E8F4FB01E30F4A
:1028D000F11D822F81568A3108F4205220833F5FF8
:1028E0009A2F8B2F2D91222339F02F3229F02E325F
:1028F000D9F283EA92E0DFCF9883898381E0FB01FC
:102900009081903209F480E0DF91CF910895A6E0A4
:10291000B0E0EDE8F4E10C94BA319C838B83862E11
:10292000272E2A01DC0112968C911297882309F434
:10293000C0C011968C91119780FFBBC0C0C02A0106
:10294000481A590A5201682C722CEB81FC81369688
:10295000FA83E983212C72E0372EA5C0EB81FC813C
:1029600082859385A485B5855FEF852E51E0952EF0
:1029700088229922248135813E832D83F9010481A7
:102980006C017D0169E0F694E794D794C7946A9549
:10299000D1F7EB81FC812281223069F4AD81BE81C7
:1029A00055964D915D916D917C9158974C0D5D1DA3
:1029B0006E1D7F1D37C001500C218114910411F54B
:1029C000002301F50097A105B10559F4EB81FC81C5
:1029D00086899789A08DB18D86839783A087B187DB
:1029E00011C0AB81BC8116964D915D916D917C912A
:1029F00019978D819E8129813A810E944C1D8823DF
:102A000009F457C0EB81FC8146815781608571854F
:102A1000848195810E94291DAB01BC01400F511D8D
:102A2000611D711D8114910499F4F0E0AF16F2E07C
:102A3000BF0670F08091D3049091D404A091D50486
:102A4000B091D604481759076A077B0709F055C0AB
:102A5000CB01BA0140E00E94D21CBC01009749F1B1
:102A6000C1018819990985018A159B0508F48C0113
:102A7000680D791DC301A8010E94D133600E711E3B
:102A8000A80160E070E0EB81FC8182859385A485DC
:102A9000B585840F951FA61FB71F82879387A487CC
:102AA000B587A01AB10AA114B10409F057CFC20129
:102AB00002C08FEF9FEF2696E2E10C94D631AB81F6
:102AC000BC8152964D915D916D917C9155971A966E
:102AD0008D919D910D90BC91A02D820120E030E060
:102AE0006A017B01C81AD90AEA0AFB0A0C151D05FE
:102AF0002E053F0508F023CF25CF8091D00490917B
:102B0000D10493010E94842D882399F200E012E001
:102B1000B5CFA1E0B0E0EFE8F5E10C94CA31BE0119
:102B20006F5F7F4F41E050E00E9487148130910534
:102B300019F4898190E002C08FEF9FEF2196E2E0C7
:102B40000C94E631A1E0B0E0E8EAF5E10C94BC3188
:102B50003C014B012A015901CC24CA94DC2CEE24FF
:102B6000FF2413C0F401EE0DFF1D6083A114B10416
:102B700019F46A3049F420C0C50170E00E94DA33CC
:102B8000009711F019C08701780187010F5F1F4F6F
:102B900004151505ECF4C301BE016F5F7F4F41E0E2
:102BA00050E00E9487146C0181E0C816D10481F4C2
:102BB00069816D30B9F6E7CFF401E00FF11F1082A3
:102BC00002C00FEF1FEFC8012196E0E10C94D8314D
:102BD000D7FCF7CF8701F0CFA0E0B0E0E2EFF5E15E
:102BE0000C94C031EC014A015B012A81222309F4D3
:102BF00075C08A899B89AC89BD8984179507A6070A
:102C0000B70708F46BC070C081149104A104B1042B
:102C100049F41E821F82188619861A861B861C8616
:102C20001D865AC04A855B856C857D85EC81FD815A
:102C3000218530E0275F3F4FDB01CA010197A109E1
:102C4000B109022E04C0B695A795979587950A9469
:102C5000D2F7750164010894C108D108E108F108B0
:102C600004C0F694E794D794C7942A95D2F7C8166F
:102C7000D906EA06FB0628F04115510561057105E4
:102C800049F48E899F89A88DB98D8E839F83A887EB
:102C9000B98716C0C81AD90AEA0AFB0A11C04E81C0
:102CA0005F81688579858C819D8198010E944C1D8A
:102CB0000894C108D108E108F108882321F40EC066
:102CC0008E010A5F1F4FC114D104E104F10439F7EA
:102CD0008A869B86AC86BD8681E001C080E0CDB748
:102CE000DEB7ECE00C94DC31223009F08DCFF0CF70
:102CF000A4E0B0E0EEE7F6E10C94C6317C01FC0103
:102D000086899789A08DB18D89839A83AB83BC8393
:102D100000E010E049815A816B817C81D7011496D3
:102D20008D919C9115979E012F5F3F4F0E944C1DE6
:102D30008823B1F1D7011496ED91FC911597848108
:102D4000080F111DB0E100301B0750F589819A81F1
:102D5000AB81BC812289203149F4883FEFEF9E0787
:102D6000E0E0AE07E0E0BE0748F4D4CF883FFFEFD5
:102D70009F07FFEFAF07FFE0BF0760F220E030E002
:102D8000A9E0000F111F221F331FAA95D1F7D70109
:102D900052960D931D932D933C93559781E001C05E
:102DA00080E02496E6E00C94E231CF93DF93EC01CF
:102DB000FB018A818823D1F57D836C8382898031F0
:102DC000C9F582E08A831E8A1F8A188E198E83892C
:102DD0009489A0E0B0E025E0880F991FAA1FBB1FCF
:102DE0002A95D1F78A8B9B8BAC8BBD8B0FC083E070
:102DF0008A8385899689A789B08D8E8B9F8BA88FB2
:102E0000B98FCE010E947816882381F081E08983F2
:102E10001E821F82188619861A861B861C861D86AE
:102E20001E861F86188A198A1B8201C080E0DF91E6
:102E3000CF9108958032D1F7DACF0F931F93CF93BC
:102E4000DF938C01FC0182818823C9F1818187FF96
:102E500033C0C80161E00E942914EC01009779F1A8
:102E60008881853E61F1F8018281823040F4828957
:102E70009389A489B5898C8F9D8FAE8FBF8FF80100
:102E800086899789A08DB18D9B8F8A8FBD8BAC8BE6
:102E9000E091CC04F091CD04309751F0BE016A5E10
:102EA0007F4FCE0148960995888D998D9B8B8A8B93
:102EB000F80181818F7781830E948B1C04C081E09F
:102EC000F801808380E0DF91CF911F910F910895E9
:102ED000CF93DF93EC010E941D171A82DF91CF91EF
:102EE00008954F925F926F927F928F929F92AF92CE
:102EF000BF92EF92FF920F931F93CF93DF9300D077
:102F000000D0CDB7DEB77C014A015B01FC018281B4
:102F1000813009F085C0818181FF82C095C0009712
:102F2000A105B10509F47AC0F70142845384648491
:102F30007584C701B501A4010E94EC15882309F42A
:102F40006FC0F7018481958181149104A104B104BB
:102F500079F446895789608D718D0E94111F8823ED
:102F600009F45EC0F701168A178A108E118E3CC0D4
:102F7000F70146815781608571859E012F5F3F4F24
:102F80000E944C1D882309F44BC0F7018481958170
:102F900049815A816B817C81FC012289203149F46D
:102FA000483FFFEF5F07F0E06F07F0E07F07E0F4D6
:102FB00008C0483F2FEF52072FEF62072FE072073C
:102FC00098F40E94111F882359F1F7014681578117
:102FD00060857185848195810FEF1FEF2FEF3FE0B2
:102FE0000E94C21D8823E1F0F701828A938AA48A95
:102FF000B58A818180688183C7010E941D1788235B
:1030000079F0B501A401481459046A047B0410F452
:10301000B301A201C7010E94EC1503C081E001C009
:1030200080E00F900F900F900F90DF91CF911F9144
:103030000F91FF90EF90BF90AF909F908F907F90F7
:103040006F905F904F900895F70182899389A489CA
:10305000B58984179507A607B70708F060CFE0CFBA
:103060001F93CF93DF93EC01142FE62FF0E035E0B0
:10307000EE0FFF1F3A95E1F7E952FB4F838581710F
:1030800021F0842F827109F058C08091D30490916F
:10309000D404A091D504B091D6048E879F87A88BC5
:1030A000B98B6B834489558960E070E0BA0155277C
:1030B0004427828D938DA0E0B0E0482B592B6A2BDA
:1030C0007B2B4E8B5F8B688F798F838590E0887127
:1030D0009070009751F4848D958DA68DB78D8A8B55
:1030E0009B8BAC8BBD8B81E009C08031910529F5AC
:1030F000CE010E947816882301F184E08A83812F13
:103100008F7089831E821F82188619861A861B86F5
:103110001C861D8614FF17C0CE0140E050E0BA01A6
:103120000E947117882349F00EC04A895B896C8917
:103130007D89CE010E94EC1502C01A8280E0DF91E9
:10314000CF911F91089515FDF0CF81E0F8CFA0E059
:10315000B0E0EDEAF8E10C94C1316C01EB01A42E72
:10316000952EB22E8C819D81F60195838483CB01AF
:1031700040E050E0BA010E94EC15FF2447C0CE01A8
:103180000E94891597FDA0C08A859B85AC85BD8569
:1031900081509E4FAF4FBF4F8A879B87AC87BD87BB
:1031A00000E010E0E02EB80145E0660F771F4A9579
:1031B000E1F769527B4FFB018081882311F0853E46
:1031C000B9F4FF2081F48091D3049091D404A091AC
:1031D000D504B091D604F60186879787A08BB18B72
:1031E000E382FF24F394FB018081882351F41CC007
:1031F0008A2D992D4BE050E00E94C433009709F4CA
:1032000069C00F5F1F4F0031110561F64A855B856C
:103210006C857D858A899B89AC89BD89481759074A
:103220006A077B0708F4ABCFB6FE4EC0B1FE4CC0B8
:10323000FF2051F0F601E380C60161E00E942914ED
:10324000EC01009759F440C08A818230E9F1CE0147
:103250000E94AD130097C1F1EC01EE2480E2FE0163
:1032600011928A95E9F7FE01AA2DB92D8BE00D90F8
:1032700001928150E1F7E091CC04F091CD043097B8
:1032800039F0BE01625F7F4FCE014096099508C0BC
:1032900081E298E2998B888B80E098E09F878E8707
:1032A000888999899B8B8A8B998F888F8E859F853A
:1032B0009F8B8E8B0E948B1C882331F0C6016E2D54
:1032C0004B2D0E94301801C080E0CDB7DEB7EBE097
:1032D0000C94DD31B7FEF2CFF7CFA1E4B0E0E3E725
:1032E000F9E10C94BD314C016B0122965FAF4EAFFA
:1032F0002297522E1EA218A61C861E8661157105E5
:1033000009F479C0FC018281882309F074C0FA01B4
:1033100080818F3291F405C031962296FFAFEEAFD7
:1033200022972296EEADFFAD229780818F32A1F3D6
:10333000F60182818250823050F4860166E2E62EE8
:10334000F12CEC0EFD1E3701BE2CAF2C11C0F60186
:1033500064817581CE010C960E94D516882309F4EC
:103360004AC08E01045F1F4FE9CF8701EB2CFA2C76
:1033700022968EAD9FAD2297BE016F5F7F4FAE014B
:10338000405C5F4F0E944714882331F434C031966B
:103390002296FFAFEEAF22972296EEADFFAD2297B9
:1033A00080818F32A1F38823E9F0C701B801AE0113
:1033B0004F5F5F4F21E00E94A7188823E1F00C15B2
:1033C0001D0529F0C8010E941D17F8011282E6149C
:1033D000F70459F65CE0E52EF12CEC0EFD1E0B2DEA
:1033E0001A2DC6CFC401B801AE014F5F5F4F252D26
:1033F0000E94A71801C080E0CF5BDF4FEFE00C9484
:10340000D931FB01242F6091CE047091CF04AF011C
:103410000E946D190895FC01128210820E94011A07
:1034200008952F923F924F925F926F927F928F9268
:103430009F92BF92CF92DF92EF92FF920F931F93D2
:10344000CF93DF9300D000D0CDB7DEB78C01B62E7E
:10345000C72E1A01FC018281813009F02CC18181C3
:1034600081FF29C143C1F801428953896489758963
:1034700082859385A485B58584179507A607B70728
:1034800031F0C8010E94EC15882309F414C1310100
:103490004B2C5C2CE1C0F80124813581F901B4800A
:1034A000BA94AC01BD01032E39E076956795579526
:1034B00047953A95D1F7302DB4224FEF842E41E055
:1034C000942E88229922BB2009F048C081149104CF
:1034D00009F044C0F8014681578160857185411526
:1034E00051056105710531F1C9019E012F5F3F4F03
:1034F0000E944C1D882309F4DEC089819A81AB812A
:10350000BC81F80124813581F9012289203149F4F7
:10351000883FFFEF9F07F0E0AF07F0E0BF0798F4A8
:1035200018C0883F2FEF92072FEFA2072FE0B207B6
:1035300080F009C0F80186899789A08DB18D009728
:10354000A105B10531F4C8010E948313882331F429
:10355000B2C0F80186839783A087B187F8014681BE
:10356000578160857185848195810E94291D6B0139
:103570007C01CB0CD11CE11CF11C8114910499F449
:10358000F0E06F16F2E07F06A8F5F80182859385DA
:10359000A485B585428953896489758984179507FF
:1035A000A607B70710F441E001C045E0C701B60126
:1035B0000E94D21C9C01009709F47DC080E092E03B
:1035C0008819990963018615970508F46C01C901EA
:1035D000880D991DB201A6010E94D133C601880D44
:1035E000991DF2E080309F0719F50E94181D88236D
:1035F000F9F461C08091D3049091D404A091D504D2
:10360000B091D6048C159D05AE05BF0511F40E943E
:103610001B1D8091D0049091D104B701A6019201A5
:103620000E949A2E882309F446C0C12CF2E0DF2EB6
:10363000A60160E070E0F80182859385A485B585D8
:10364000840F951FA61FB71F82879387A487B5870E
:103650004C0C5D1C6C187D08F80182859385A4854F
:10366000B5856114710409F016CF428953896489C4
:103670007589481759076A077B0728F4828B938B53
:10368000A48BB58B0AC08091CC049091CD04009797
:1036900039F02114310421F0F8018181806881839F
:1036A000F801818183FF05C0C8010E941D1788238E
:1036B00011F0C10105C081E0F80180838FEF9FEF19
:1036C0000F900F900F900F90DF91CF911F910F915E
:1036D000FF90EF90DF90CF90BF909F908F907F9062
:1036E0006F905F904F903F902F90089582FDBBCEDA
:1036F000CECE0F931F93CF93DF93EC01662329F077
:103700004E969093CF048093CE0488A18E01025EE2
:103710001F4F882319F0C8010E946817BE016B5F14
:103720007F4FC8010E94D516DF91CF911F910F9155
:1037300008950F931F93CF93DF938C010E94B22DB6
:103740008823A9F0E8012596CE01B80141E00E9446
:103750005E1F882339F4CE01B80140E00E945E1F4D
:10376000882329F0C80161E00E94791B01C080E034
:10377000DF91CF911F910F910895CF93DF93EC01CB
:103780000CC08091BE019091BF01DC01ED91FC91D4
:103790000190F081E02D09952196FE016491662348
:1037A00081F7DF91CF9108950E94BD1B8091BE01EA
:1037B0009091BF010E940D0C0895CF93DF93EC010F
:1037C00089818823E1F083EB92E00E94BD1B69812F
:1037D0008091BE019091BF0170E040E150E00E94F5
:1037E000190D84EC92E00E94BD1B6B818091BE019B
:1037F0009091BF0170E040E150E00E94230DDF9105
:10380000CF9108950F931F93CF93DF938C01EB011A
:1038100088EC92E00E94BD1B8091BE019091BF0197
:10382000BE010E94330CC8010E94DD1BDF91CF91C5
:103830001F910F9108950E94021CFFCF0F931F93B9
:10384000CF93DF938C01EB0180ED92E00E94BD1BD2
:10385000CE010E94D41BC8010E94DD1BDF91CF91D5
:103860001F910F9108950E941E1CFFCFCF93DF93ED
:10387000EC018981882379F080E293E00E94D41BD7
:103880008981813021F487E493E00E94D41BCE012A
:103890000E94DD1B10C08F89882319F488ED92E007
:1038A00008C088A1882319F485EF92E002C080E166
:1038B00093E00E94D41BDF91CF9108950E94361CA3
:1038C000FFCFA1E0B0E0E7E6FCE10C94CA316983E8
:1038D0000496BE016F5F7F4F41E050E00E94111AD5
:1038E00021E030E08130910511F020E030E0C901A5
:1038F0002196E2E00C94E631CF93DF93EC0104963D
:103900000E940B1A1B821A8288E292E099838883B4
:10391000DF91CF9108958091D20480FF3DC0409106
:10392000D3045091D4046091D5047091D604809151
:10393000D0049091D10427ED34E00E949A2E882380
:1039400069F18091D20481FF22C08091DB06823030
:10395000F0F04091D7065091D8066091D906709149
:10396000DA068091D3049091D404A091D504B0914B
:10397000D604480F591F6A1F7B1F8091D004909175
:10398000D10427ED34E00E949A2E882349F08091DB
:10399000D2048E7F8093D20481E0089580E0089560
:1039A00080E00895CF92DF92EF92FF92CF936B0168
:1039B0007C01C42F8091D3049091D404A091D504AC
:1039C000B091D6048C159D05AE05BF05E1F00E94AF
:1039D0008B1C882309F1C2FD0CC08091D00490910A
:1039E000D104B701A60127ED34E00E94842D88237D
:1039F00099F01092D204C092D304D092D404E092F1
:103A0000D504F092D604C3708091D2048C2B80939D
:103A1000D20487ED94E002C080E090E0CF91FF9067
:103A2000EF90DF90CF90089542600E94D21C0895DD
:103A30000E948B1C08958FEF9FEFDC018093D304CD
:103A40009093D404A093D504B093D6041092D204DA
:103A500008950F931F93CF93DF93EC01DB01CA010D
:103A60000297A109B1092C8130E040E050E0BC018F
:103A7000CD010E945E318B019C018A859B85AC85BE
:103A8000BD85080F191F2A1F3B1FB801C901DF910F
:103A9000CF911F910F910895A0E0B0E0E2E5FDE124
:103AA0000C94C431EC016A017B018901423051055B
:103AB0006105710508F460C08D819E81AF81B88574
:103AC0000196A11DB11D84179507A607B70708F435
:103AD00053C08A89803129F4BB27A72F962F852FC1
:103AE0000CC0803209F048C0DB01CA01E7E0B6959E
:103AF000A79597958795EA95D1F74E855F85688953
:103B00007989840F951FA61FB71FBC01CD0140E026
:103B10000E94141D009781F12A89203191F42FEF22
:103B200030E040E050E0C222D322E422F522CC0C67
:103B3000DD1CC80ED91EF60180819181A0E0B0E0A5
:103B400014C02FE730E040E050E0C222D322E4224C
:103B5000F522CC0CDD1CCC0CDD1CC80ED91EF601E8
:103B600080819181A281B381BF70F80180839183AC
:103B7000A283B38381E001C080E0CDB7DEB7E8E087
:103B80000C94E031A0E0B0E0E8ECFDE10C94C03131
:103B9000EC016A017B014801590142305105610580
:103BA000710508F458C08D819E81AF81B88501965A
:103BB000A11DB11D84179507A607B70708F44BC0D0
:103BC0008A89803129F4BB27A72F962F852F0CC017
:103BD000803209F040C0DB01CA0127E0B695A79505
:103BE000979587952A95D1F74E855F85688979895C
:103BF000840F951FA61FB71FBC01CD0141E00E9495
:103C0000141D009741F12A89203181F42FEF30E013
:103C100040E050E0C222D322E422F522F601EE0F6A
:103C2000FF1FE80FF91F9182808213C02FE730E059
:103C300040E050E0C222D322E422F522F601EE0F4A
:103C4000FF1FEE0FFF1FE80FF91F80829182A282F3
:103C5000B38281E001C080E0CDB7DEB7ECE00C9428
:103C6000DC31AFE0B0E0E7E3FEE10C94BA311C01D7
:103C70004C875D876E877F873B872A87DC01159697
:103C80004D915D916D917C9118974F5F5F4F6F4F94
:103C90007F4F4E835F8368877987F9014080518029
:103CA00062807380411451046104710439F00894F6
:103CB000411C511C611C711C1D8207C0DC014D9010
:103CC0005D906D907C90B1E0BD8353014201CC24A6
:103CD000DD247601F10185819681A781B085C81622
:103CE000D906EA06FB0608F097C04E815F81688519
:103CF0007985481559056A057B0550F442E0842E04
:103D0000912CA12CB12C52E0452E512C612C712C00
:103D1000C101B501A4019E012F5F3F4F0E944C1DC0
:103D2000882309F479C089819A81AB81BC8195018E
:103D300084010F5F1F4F2F4F3F4F0097A105B10523
:103D400049F0481459046A047B0409F01D822801D3
:103D500039010FC0D901C80184199509A609B7090D
:103D60004C855D856E857F8584179507A607B70707
:103D700059F00894C11CD11CE11CF11C0894811C51
:103D8000911CA11CB11CA6CFA401B5018D81882373
:103D900031F0D1010D931D932D933C931397C101E5
:103DA0000FEF1FEF2FEF3FE00E94C21D882391F419
:103DB00033C0680179010894C108D108E108F1080D
:103DC000C101B701A6010E94C21D882329F19701F4
:103DD000860102C0950184014016510662067306F1
:103DE00040F3EA85FB8540815181628173814115F1
:103DF00051056105710539F0C101930182010E94ED
:103E0000C21D882349F0AA85BB854D925D926D92B3
:103E10007C92139781E001C080E02F96E2E10C9440
:103E2000D631A4E0B0E0E7E1FFE10C94C2315C01DF
:103E30006A017B01C501B701A6019E012F5F3F4FBB
:103E40000E944C1D8823A9F1C501B701A60100E01D
:103E500010E098010E94C21D882359F1F50180816C
:103E60009181A281B381C816D906EA06FB0620F427
:103E7000C082D182E282F382C980DA80EB80FC804A
:103E8000F5018289803151F4F8EFCF16FFEFDF069C
:103E9000F0E0EF06F0E0FF0650F4CCCF88EFC81654
:103EA0008FEFD8068FEFE8068FE0F80618F281E072
:103EB00001C080E02496EAE00C94DE31A0E0B0E09E
:103EC000E4E6FFE10C94BA31EC01042F7093D104C5
:103ED0006093D0041A8A82E090E0A0E0B0E088838A
:103EE0009983AA83BB831092D2048FEF9FEFDC01EA
:103EF0008093D3049093D404A093D504B093D604B4
:103F0000442341F1453008F0EBC060E070E0CB01A4
:103F100040E00E94D21C009709F4E2C0E02FF0E0DC
:103F2000A4E0EE0FFF1FAA95E1F7E255FE4FE80F60
:103F3000F91F808190E08F779070009709F0D0C0D2
:103F40004084518462847384411451046104710477
:103F500021F4C6C0442455243201C301B20140E01B
:103F60000E94D21C8C01009709F4BAC0FC01838521
:103F70009485F2E080309F0709F0B2C0F8012089F3
:103F8000222309F4ADC086859785009709F4A8C05F
:103F90002093DB0645854C83198688E090E021E07C
:103FA00007C0220F019709F49BC039853F5F39870D
:103FB0004217B9F7F801C688D788C114D10419F09F
:103FC000EE24FF2405C0F801C4A0D5A0E6A0F7A008
:103FD000C092D706D092D806E092D906F092DA06BF
:103FE000F801868597854C01AA24BB24840C951C76
:103FF000A61CB71C8E869F86A88AB98A218832881B
:104000003C8A2B8A208930E040E050E0C701B601AD
:104010000E945E31DC01CB01880D991DAA1DBB1DDC
:104020008D8B9E8BAF8BB88FA101E5E0440F551FA0
:10403000EA95E1F741505E4F452F5527469560E0E0
:1040400070E0480F591F6A1F7B1F4A875B876C8788
:104050007D87F80183899489009719F0A0E0B0E08A
:1040600005C0F80180A191A1A2A1B3A173016201D1
:10407000C41AD50AE60AF70AB701A601480F591F64
:104080006A1F7B1F098404C07695679557954795ED
:104090000A94D2F74D835E836F837887453F2FE084
:1040A000520720E0620720E0720718F48CE08A8B48
:1040B00017C0453F8FEF580780E0680780E078071A
:1040C00010F480E10AC0F80184A595A5A6A5B7A5BE
:1040D0008D8B9E8BAF8BB88F80E28A8B81E001C085
:1040E00080E0CDB7DEB7E2E10C94D631CF93DF9319
:1040F000EC018E8160E00E941A0981E090E00E944C
:1041000074088E8161E00E941A0981E090E00E94AB
:1041100074088E8160E00E941A0984E690E00E9493
:104120007408DF91CF910895A0E0B0E0EAE9F0E2F1
:104130000C94C4318C01C0E0D0E0C62EDD2478019F
:10414000EC0EFD1EF701878161E00E94E608B601D2
:104150000C2E02C0759567950A94E2F76170F7011D
:1041600087810E941A092196C430D10541F7C80100
:104170000E947620CDB7DEB7E8E00C94E031A0E0F5
:10418000B0E0E5ECF0E20C94C4318C01C0E0D0E08A
:10419000C62EDD247801EC0EFD1EF701878161E05B
:1041A0000E94E608B6010C2E02C0759567950A9428
:1041B000E2F76170F70187810E941A092196C830E1
:1041C000D10541F7C8010E947620CDB7DEB7E8E0FF
:1041D0000C94E0311F93CF93DF93EC01162F8C8169
:1041E000642F0E941A098D818F3F19F060E00E94B0
:1041F0001A098F8584FF05C0CE01612F0E94BF2060
:104200000FC0212F30E084E0359527958A95E1F79E
:10421000CE01622F0E949420CE01612F0E94942033
:10422000DF91CF911F91089541E00E94EA2081E043
:1042300090E0089540E00E94EA200895FC01608922
:10424000262F2460208B6C600E941A210895A8E01C
:10425000B0E0EDE2F1E20C94CA31FE013196ACE837
:10426000B1E028E00D9001922150E1F7FC01238993
:10427000421710F0422F4150E42FF0E0EE0FFF1FE5
:10428000EC0FFD1F2181260F2068622F0E941A214A
:104290002896E2E00C94E63161E00E941A2180ED5C
:1042A00097E00E9474080895CF93DF93EC014230A9
:1042B00018F08F8588608F874B8B1C8A222329F00A
:1042C000413019F48F8584608F8780E593EC0E94DC
:1042D00074088C8160E00E941A098E8160E00E945F
:1042E0001A098D818F3F19F060E00E941A096F85CD
:1042F00064FD1DC0CE0163E00E94942084E991E139
:104300000E947408CE0163E00E94942084E991E148
:104310000E947408CE0163E00E94942086E990E038
:104320000E947408CE0162E00E94942016C0606270
:10433000CE010E941A2184E991E10E9474086F85E0
:104340006062CE010E941A2186E990E00E94740802
:104350006F856062CE010E941A216F856062CE0176
:104360000E941A2184E0888BCE010E941E21CE017A
:104370000E944C2182E0898BCE0166E00E941A21C6
:10438000DF91CF9108956F927F928F92AF92CF92EB
:10439000EF920F931F93CF93DF93CDB7DEB73C011E
:1043A000162F842FF301448325830683E782C0867A
:1043B000A18682869D8593879E8594879F85958714
:1043C0009889968761E00E94E608F30185818F3F16
:1043D00019F061E00E94E608F301868161E00E9425
:1043E000E608112319F0F301178603C080E1F301F9
:1043F0008787C30160E141E020E00E945421DF9102
:10440000CF911F910F91EF90CF90AF908F907F90B1
:104410006F9008958F92AF92CF92EF920F93CF93B8
:10442000DF93A62F742F522F302FAE2C8C2CEC0143
:104430001B821A82E0E3F2E0F983E88300D000D027
:10444000EDB7FEB73196CDB7DEB719821182128271
:10445000138261E04A2F2FEF072FE52EC32E0E9413
:10446000C3210F900F900F900F90DF91CF910F917C
:10447000EF90CF90AF908F90089590E0982F88277D
:10448000845F9B4F44E050E00E949424089590E0A4
:104490000496982F8827860F971F0E94BE240895A0
:1044A00062E070E00E944722089590E00496982F01
:1044B0008827860F971F642F0E9436240895462F61
:1044C00062E070E00E9455220895CF93DF93C82FD9
:1044D000D62F472F60E170E00E9455228C2F61E1BA
:1044E00070E04D2F0E945522DF91CF910895CF9318
:1044F000DF93C82FD62F472F64E070E00E9455222B
:104500008C2F65E070E04D2F0E945522DF91CF91F6
:104510000895CF93C82F8EED96E06C2F40E10E9456
:1045200050268C2F6FEF0E945F22CF910895EF925B
:10453000FF921F93CF93DF9300D0CDB7DEB7182F34
:104540007A01862F8150853048F5812F2A8369832F
:104550000E9489222A816981422F462B812F60E0A7
:1045600070E00E945522E114F10419F0812FB70187
:104570000BC06091DC067091DD066F5F7F4F70931A
:10458000DD066093DC06812F0E9477228EED96E097
:10459000612F41E00E94502681E001C080E00F9031
:1045A0000F90DF91CF911F91FF90EF9008951F938F
:1045B000CF93DF93182FFB01EA0180818F3F51F4E5
:1045C00081818F3F91F482818F3F79F483818F3F86
:1045D00061F41DC0882349F48181882331F48281EC
:1045E000882319F48381882391F0209781F0812F0B
:1045F000BF010E943D22812FBE010E9465228EEDE7
:1046000096E0612F44E00E94502681E001C080E0E6
:10461000DF91CF911F910895682F8EED96E048E0CD
:104620000E9450260895CF92DF92EF92FF921F933F
:10463000CF93DF93182F6B017A0188E04130580740
:1046400018F0E12C68E0F62E8EED96E0612F0E94C6
:104650009B25EC01812F63E070E00E9447228731A7
:1046600011F08C3121F4CE15DF0570F302C0EE2479
:10467000FF248EED96E0612FA60197010E944A2546
:104680008EED96E0612F40E20E9450260DC0812FF2
:1046900063E070E00E944722882331F4812F0E945A
:1046A0008922EE24FF2409C0812F0E94502284FF1A
:1046B000EECF812F60E10E945F22C701DF91CF9191
:1046C0001F91FF90EF90DF90CF900895A0E0B0E0B1
:1046D000ECE6F3E20C94C431182F6B01EA018EED85
:1046E00096E0612F0E946B257C01009761F4812F79
:1046F00063E070E00E9447228431D1F08823C1F04A
:104700008C31B1F01BC0C817D9070CF47E011E1400
:104710001F0474F48EED96E0612FA601970100E06E
:104720000E9418268EED96E0612F40E40E945026EC
:10473000C701CDB7DEB7E8E00C94E031EE24EA948F
:10474000FE2CF6CF0F93282FAB018EED96E0622F53
:1047500021E030E001E00E94182681E090E00F9116
:104760000895AF92BF92CF92DF92FF920F931F9363
:10477000CF93DF93F82E6B015A0189018EED96E0FD
:104780006F2D0E949B258017910740F48EED96E0D7
:104790006F2D0E949B25D82FC92F02C0D02FC12F6B
:1047A0008EED96E06F2DA60195010D2F1C2F0E9416
:1047B000DD248D2F9C2FDF91CF911F910F91FF90C2
:1047C000DF90CF90BF90AF9008951F93CF93DF936A
:1047D000182FFB01EA018081882349F48181882315
:1047E00031F48281882319F48381882369F020972A
:1047F00059F0812FBF010E943D22812FBE010E94EE
:10480000652281E090E002C080E090E0DF91CF91EE
:104810001F910895CF93C82F8EED96E06C2F40E244
:104820000E9450260CC08C2F0E94502283FF07C08C
:104830008C2F68E10E945F2280E090E00BC08C2FFB
:104840000E94502284FFEFCF8C2F60E10E945F22F4
:1048500081E090E0CF9108958EBD0DB407FEFDCFAD
:104860008EB508952A9808952A9A0895A2E0B0E096
:10487000ECE3F4E20C94C931182F6A8399830E9407
:10488000322480EF0E942C249981892F0E942C24AD
:10489000812F0E942C246A81862F0E942C240E9442
:1048A000342481E02296E3E00C94E531CF93DF934A
:1048B000EC016CE271E080E090E00E944B080E9405
:1048C0006026229A80E090E060E80E9436248BE126
:1048D00090E065E50E9436248AE190E065E50E945B
:1048E000362480E090E49983888380E090E699877D
:1048F000888780E098E49B838A8380E098E69B87A2
:104900008A8780E090E59D838C8380E090E79D8797
:104910008C8780E098E59F838E8380E098E79F876F
:104920008E87DF91CF910895A0E0B0E0EAE9F4E24C
:104930000C94C4318C016A017B01C0E0D0E015C049
:104940000E94322480EF0E942C24812F0E942C246C
:10495000802F0E942C240F5F1F4FF70181917F0150
:104960000E942C240E9434242196CC15DD0541F7A9
:10497000CE01CDB7DEB7E8E00C94E031A1E0B0E0C5
:10498000E4ECF4E20C94C931182F99830E9432248C
:104990008FE00E942C249981892F0E942C24812F42
:1049A0000E942C2480E00E942C2489830E943424BD
:1049B00089812196E3E00C94E5316F927F928F928A
:1049C0009F92AF92BF92CF92DF92FF920F931F936D
:1049D000CF93DF935C01F62E3A0149016801862FDF
:1049E00064E270E00E944722C82F8F2D65E270E0DC
:1049F0000E9447223C2F20E0082F10E0022B132BAF
:104A0000060D171DA80157708F2D90E0880F991F74
:104A1000A80EB91EF50120813181240F351FCA016E
:104A20008C0D9D1DF8E081309F0798F0C0E0D8E024
:104A3000C41BD50BC901B401AE010E949424B4017A
:104A40006C0F7D1FA6014C1B5D0BF50180819181D0
:104A500003C0C901B401A6010E9494240C0D1D1DC0
:104A60008F2D64E270E0412F0E9455228F2D65E268
:104A700070E0402F0E945522DF91CF911F910F913E
:104A8000FF90DF90CF90BF90AF909F908F907F90DE
:104A90006F9008950F931F93FA01890140E050E051
:104AA0009F010E94DD241F910F910895CF93DF9302
:104AB000C82F66E270E00E944722D82F8C2F67E251
:104AC00070E00E9447223D2F20E090E0822B932B44
:104AD000DF91CF910895FF920F931F93CF93DF93B0
:104AE000F62EC0E0D0E08F2D0E9456258C01009755
:104AF00021F08F2D0E945625EC01C017D10799F7A0
:104B0000CE01CDB7DEB7E5E00C94E331CF93DF9370
:104B1000C82F60E270E00E944722D82F8C2F61E2FC
:104B200070E00E9447223D2F20E090E0822B932BE3
:104B3000DF91CF910895FF920F931F93CF93DF934F
:104B4000F62EC0E0D0E08F2D0E9486258C010097C4
:104B500021F08F2D0E948625EC01C017D10799F70F
:104B6000CE01CDB7DEB7E5E00C94E331A0E0B0E0D4
:104B7000ECEBF5E20C94C4318C016A017B01C0E0DE
:104B8000D0E016C00E9432248FE00E942C24812F96
:104B90000E942C24802F0E942C240F5F1F4F80E046
:104BA0000E942C24F70181937F010E9434242196D6
:104BB000CC15DD0539F7CE01CDB7DEB7E8E00C94B2
:104BC000E031A0E0B0E0E7EEF5E20C94C431690119
:104BD00078015770C62FD0E02496CC0FDD1FC80F88
:104BE000D91F28813981240F351FC801840F951FD3
:104BF00068E08130960790F000E018E0041B150B88
:104C0000C901B601A8010E94B625B601600F711F47
:104C1000A701401B510B8881998103C0C901B601CE
:104C2000A8010E94B625CDB7DEB7E8E00C94E031CC
:104C3000A0E0B0E0EEE1F6E20C94C0315C01F62EAB
:104C40004A016901E02E862F68E270E00E94472247
:104C5000C82F8F2D69E270E00E9447223C2F20E090
:104C6000C82FD0E0C22BD32BC5016F2DAE0194010C
:104C700086010E94E125EE2071F4CC0DDD1D8F2D03
:104C800068E270E04D2F0E9455228F2D69E270E09E
:104C90004C2F0E945522CDB7DEB7ECE00C94DC31EE
:104CA000CF93C62F862F61E070E00E9455228C2F93
:104CB00061E070E00E9447228823C9F7CF910895F0
:104CC0008AE061E00E941A098AE061E00E94E60839
:104CD0008CB580618CBD8CB580648CBD8DE061E04D
:104CE0000E94E6088BE061E00E94E60808950E96B7
:104CF000FC0184E1DF011D928A95E9F70895A2E3A2
:104D0000B0E0E5E8F6E20C94BA314C012A013B012F
:104D100089010E940F086B017C01E7E4AE2EB12CE3
:104D2000A80CB91C14C00E940F08DC01CB018C191F
:104D30009D09AE09BF09481659066A067B0608F4A4
:104D400010C262E370E080E090E00E944B08C50171
:104D50000E94D9121816190634F7C501BE01695F01
:104D60007F4F42E250E00E9471128F81823009F041
:104D7000F3C1F501858996898334910509F0ECC169
:104D80004B855C856D857E85C72EDD24EE24FF2452
:104D9000B42FAA2799278827C82AD92AEA2AFB2AC2
:104DA000B62FA52F942F882780709070B070C82AD6
:104DB000D92AEA2AFB2A452F562F672F77274070DA
:104DC00060707070C42AD52AE62AF72AF801C082DA
:104DD000D182E282F382B401685F7F4FCE01839675
:104DE00046E050E00E94C433009799F4F4018081BA
:104DF0009181A281B381C816D906EA06FB0648F064
:104E000084819581A681B7818C159D05AE05BF056E
:104E100028F4C5010E9445124424A5C18F89988DAC
:104E2000A98DBA8DF40186879787A08BB18B0EEC84
:104E300010E0C5010E94901201501040D1F74424A7
:104E400082E2682E712C680C791C96E2292E312C96
:104E5000280C391CC4018A969AA789A72AE1E22E58
:104E6000F12CE80CF91CF401E85AFF4FFCA7EBA762
:104E7000C40142969EA78DA7F4017696F8ABEFA7E2
:104E8000C4014E969AAB89AB67015EC1C5010E9411
:104E900090128333910509F410C18433910594F481
:104EA0008130910579F18230910524F4009709F45D
:104EB0004BC13CC18330910561F18630910509F009
:104EC00035C142C08A33910509F48CC08B339105FA
:104ED00044F48533910571F08633910509F026C1BC
:104EE0004EC08B33910509F4B2C08F3F910509F094
:104EF0001DC12AC1C5010E949012C5010E949012D5
:104F0000482E22C1C5010E949012C5016DA57EA543
:104F10005CC0C5010E949012082FC5016FA578A939
:104F200044E050E00E947112EE24FF2410E004508F
:104F3000104006C0C5010E9490120894E11CF11CAB
:104F4000E016F106BCF300C1C5010E949012082FC3
:104F5000C50169A97AA944E050E00E947112EE24CB
:104F6000FF2410E00450104006C0C5010E949012BA
:104F70000894E11CF11CE016F106BCF3E5C0C50184
:104F80000E949012E82EF401828D938DA48DB58D30
:104F90000097A105B105B9F0CE010196B6010E94B6
:104FA000720B8B819C81AD81BE81EBA5FCA54081FC
:104FB00051816281738184179507A607B70719F09D
:104FC00000E010E00CC0C501B60144E050E00E94D2
:104FD0007112BAC0C5010E9490120F5F1F4FE016F8
:104FE000C9F7B2C0C5010E949012C501B10144E0E9
:104FF00050E00E947112F40106A117A120A531A56D
:10500000432F552766277727B02FAA279927882768
:10501000482B592B6A2B7B2BB22FA12F902F88273F
:1050200080709070B070482B592B6A2B7B2BBB275C
:10503000A32F922F812F8070A070B070482B592B16
:105040006A2B7B2B46A357A360A771A77DC0C50120
:105050000E949012C50169A57AA544E050E00E9423
:105060007112F40102A513A524A535A5432F5527D8
:1050700066277727B02FAA2799278827482B592BEF
:105080006A2B7B2BB22FA12F902F882780709070D6
:10509000B070482B592B6A2B7B2BBB27A32F922F49
:1050A000812F8070A070B070482B592B6A2B7B2BFE
:1050B00042A753A764A775A747C0C5010E949012D5
:1050C000C501B30144E050E00E947112F40102A155
:1050D00013A124A135A1432F552766277727B02F89
:1050E000AA2799278827482B592B6A2B7B2BB22F6D
:1050F000A12F902F882780709070B070482B592B6B
:105100006A2B7B2BBB27A32F922F812F8070A0703F
:10511000B070482B592B6A2B7B2B42A353A364A35B
:1051200075A346A757A760AB71AB0EC0C5010E941F
:105130009012E82E00E010E005C0C5010E94901218
:105140000F5F1F4FE016C9F7C5010E942A121816FB
:1051500019060CF49BCE01C04424C5010E944512DF
:1051600002C044244A94842DE296E2E10C94D631A4
:10517000CF93DF93EC01625F7F4F0E94720BCE01F1
:10518000DF91CF910895CF93DF93EC016E5E7F4F57
:105190000E94720BCE01DF91CF910895CF93DF93E0
:1051A000EC016A5E7F4F0E94720BCE01DF91CF91BE
:1051B0000895CF93DF93EC01625E7F4F0E94720BE4
:1051C000CE01DF91CF91089580E3FB018083329679
:1051D00001C0482F842F82958F704F704A3010F491
:1051E000405D01C0495C4293882399F70895ACE281
:1051F000B0E0EDEFF8E20C94BD317C01562E842E28
:10520000652E2DE0C22ED12CCC0EDD1E30E2932E69
:10521000F601292D11922A95E9F7CE0107966FEF35
:105220004FEF2FEF0FEF0E94660B47E4A42EB12C37
:10523000AE0CBF1C86EE91E09A83898389859A859E
:10524000AB85BC858B839C83AD83BE83C501BE01CA
:105250006F5F7F4F43E450E00E94D012EFEF8F3F2B
:105260009E0709F4ECC081E08D878E8786E08F87EA
:10527000188AF7010481158126813781432F55272C
:1052800066277727B02FAA2799278827482B592BDD
:105290006A2B7B2BB22FA12F902F882780709070C4
:1052A000B070482B592B6A2B7B2BBB27A32F922F37
:1052B000812F8070A070B070482B592B6A2B7B2BEC
:1052C000498B5A8B6B8B7C8B6D8A8E8A80E890E041
:1052D000988F8F8BC501B6014CE150E00E94B61249
:1052E000F60111929A94E9F788E0682E712C6E0C01
:1052F0007F1CF601D30186E00D9001928150E1F709
:10530000FDE0CF2ED12CCC0EDD1EC501B60140E153
:1053100050E00E94B61280E2F60111928A95E9F7F8
:1053200006E010E09C2CCD2CC501692D7C2D40E2BF
:1053300050E00E94B61201501040B1F783E68D870D
:1053400092E89E8793E59F87888B85E3898B81E030
:105350008A8B5B8A9DE39C8B97E09D8B8E8BDE0115
:105360005796F30186E001900D928150E1F78CE0B1
:105370008D8F8E8FCE014F9664E971E00E94E533E8
:10538000C701BE016B5D7F4FF70143850E94E42892
:10539000C701BE01695D7F4FF70144850E94E42883
:1053A000C701BE01675D7F4FF70145850E94E42874
:1053B000C501BE01635F7F4F4EE150E00E94B6120F
:1053C000F3E05F1601F582E38D8784E08E87F701B5
:1053D00096859F879785988B9089998B91899A8BD1
:1053E00096E39B8B8C8B828D8D8B838D8E8B848DA6
:1053F0008F8B858D888FC501BE01635F7F4F4CE029
:1054000050E00E94B61287E38D8786E08E8791E098
:105410009F8793E0988B898B8FE08A8B8AE38B8BB5
:105420008BE38C8B8FEF8D8BC501BE01635F7F4F4C
:1054300049E050E00E94B612C5010E94CB12AC9622
:10544000EFE00C94D931A8E0B0E0E9E2FAE20C9484
:10545000BA318C0161E070E080E090E020ED37E04F
:1054600040E050E00E941D2FD80114966C931497D1
:1054700015967C93159716968C93169717969C9372
:1054800017976C9311967C93119712968C931297A1
:1054900013969C93F801E95BFF4FFE83ED83CF01E8
:1054A0000E9419138D819E8164E470E00E942E1386
:1054B000882309F42AC10E940F084B015C012224B1
:1054C0003324FF2456E4C52ED12CC00ED11EC801B2
:1054D000CE9698878F83E3E0EE2EF8EE4F2EF3E022
:1054E0005F2E612C712CFBC08823F9F4F8018481B4
:1054F0009581A681B7810196A11DB11D84839583F5
:10550000A683B7830E940F08681979098A099B0945
:10551000A30192010E947D31C80161E0A9010E94AE
:10552000F72881E0D6018C93BEC08430F9F4F801ED
:1055300084819581A681B7810196A11DB11D8483C7
:105540009583A683B7830E940F08681979098A0991
:105550009B09A30192010E947D31C80163E0A9016A
:105560000E94F728E2E0D601EC939DC0813061F5FE
:10557000AF81B8854D915D916D917C91C8019E017F
:105580002F5F3F4F0E947F26F82EB2E08B1709F065
:105590008AC089819A81AB81BC81F801848395831B
:1055A000A683B7830E940F08681979098A099B09A5
:1055B000A30192010E947D31C80163E0A9010E940C
:1055C000F728D601FC9275C0823009F06CC0EF81DB
:1055D000F8854081518162817381C8019E012F5FEE
:1055E0003F4F0E947F26F82EF5E08F1709F055C037
:1055F000D601EC92F80182A193A1A4A1B5A10097D4
:10560000A105B10541F484E893E0A0E0B0E082A3F5
:1056100093A3A4A3B5A3F80186A197A1A0A5B1A5C2
:105620000097A105B10561F482A193A1A4A1B5A140
:10563000B695A7959795879586A397A3A0A7B1A799
:10564000F80182A593A5A4A5B5A546A157A160A57B
:1056500071A50097A105B10551F4DB01CA01880FBE
:10566000991FAA1FBB1F82A793A7A4A7B5A7D801FC
:105670009E964D935D936D937C93D1979A968D9161
:105680009D910D90BC91A02DF80182AB93ABA4AB82
:10569000B5AB21E0222E312C0CC0F6E08F1719F4A7
:1056A000D6011C9206C0BFEFFB1619F4F60110825A
:1056B000FF24F1E02F16310491F00E940F08DC0165
:1056C000CB0188199909AA09BB09F80142AD53AD6C
:1056D00064AD75AD481759076A077B0728F0D601F6
:1056E0008C91833009F000CF8D819E810E94191327
:1056F000F80184819581A681B7810196A11DB11D14
:1057000084839583A683B78302C022243324C101F6
:105710002896E2E10C94D631A0E0B0E0E2E9FBE2A9
:105720000C94C031EC010E940F084B015C018EA962
:105730009FA9A8ADB9AD8E010E5B1F4F0097A105C3
:10574000B10509F493C0F80180819181A281B381F0
:10575000A5019401281B390B4A0B5B0BCA01B90147
:1057600057FD52C0A8EECA2EA3E0DA2EE12CF12C90
:10577000C80CD91CEA1CFB1C28EE33E040E050E0CA
:105780000E949F31DC01CB01C81AD90AEA0AFB0A40
:10579000F801C082D182E282F382DA01C901019666
:1057A000A11DB11D4EA55FA568A979A98C019D0118
:1057B000000F111F221F331F401751076207730785
:1057C0002CF41EA61FA618AA19AA08C0481B590B1C
:1057D0006A0B7B0B4EA75FA768AB79AB4AA95BA9A5
:1057E0006CA97DA940175107620773072CF41AAA08
:1057F0001BAA1CAA1DAA08C0481B590B6A0B7B0BCD
:105800004AAB5BAB6CAB7DABFE01EA5BFF4F8081CB
:10581000833081F48EA59FA5A8A9B9A918161906E9
:105820001A061B063CF084E08083CE010E94232AE6
:10583000019602C080E090E0FE01EA5BFF4F20810C
:10584000233011F02223F9F44AA95BA96CA97DA9A0
:105850001416150616061706B4F01082CE010E9423
:105860007726CE010E94232A03960DC0D501C401DC
:1058700088519C4FAF4FBF4FF80180839183A28323
:10588000B38380E090E08EAA9FAAA8AEB9AECDB750
:10589000DEB7ECE00C94DC31A0E0B0E0E2E5FCE245
:1058A0000C94C2316C015B01DA01C901F60112A24C
:1058B00013A214A215A216A217A210A611A612A630
:1058C00013A614A615A616AA17AA10AE11AE82AF7B
:1058D00093AFA4AFB5AFFE96E082F182028313834B
:1058E000E601289686E0FE0111928A95E9F7C60145
:1058F0000E947726F50186E0019009928150E1F738
:10590000F601EA5BFF4F1082C6010E94232ACDB741
:10591000DEB7EAE00C94DE310F938EEE96E060E0A5
:1059200040E020E000E00E94660B0F910895809116
:10593000C10085FDFCCF8091C00085FFF8CF60934A
:10594000C60081E090E008951092F7061092F606E6
:1059500088E392E09093F5068093F40608958FEF24
:105960008EBD0DB407FEFDCF8EB508958EBD0DB46E
:1059700007FEFDCF0895FC01808161E00E941A09B5
:105980008FEF0E94B62C0895CF93DF93EC0188EF40
:1059900096E06A810E94E32E888160E00E941A09E5
:1059A000DF91CF910895A0E0B0E0E9EDFCE20C9426
:1059B000C431EC016B018A010E940F08DC01CB01AC
:1059C0007C010AC00E940F086E197F0981E06D32C8
:1059D000780710F081E108C00E94AF2C8B838F3FC5
:1059E00089F38E3F39F08FE08983CE010E94BB2C72
:1059F00080E028C098012150304001151105C9F000
:105A00008FEF8EBDF60180E090E04FEF07C00DB440
:105A100007FEFDCF5EB54EBD5193019682179307E9
:105A2000B0F30DB407FEFDCF8EB52C0D3D1DF90171
:105A300080831B820E94AF2C0E94AF2CCE010E945B
:105A4000BB2C81E0CDB7DEB7E8E00C94E0310F93DA
:105A50001F93CF93DF93EB010E940F088B019C01F2
:105A600007C00E940F08601B710B6C177D0730F494
:105A70000E94AF2C8F3FA9F781E001C080E0DF9149
:105A8000CF911F910F910895A5E0B0E0EAE4FDE207
:105A90000C94C7318C01F62E29833A834B835C83A7
:105AA0000E94C42CC80168E572E00E94272D8F2D4A
:105AB00080640E94B62C8C810E94B62C8B810E943F
:105AC000B62C8A810E94B62C89810E94B62CFF20B8
:105AD00011F485E901C087E80E94B62C8CE0F81625
